:100000000C947A000C94A2000C94A2000C94A20010
:100010000C94A2000C94A2000C94A2000C94A200D8
:100020000C94A2000C94A2000C94A2000C94A200C8
:100030000C94A2000C94A2000C94A2000C94A200B8
:100040000C94B6170C94A2000C9426180C9400186B
:100050000C94A2000C94A2000C94A2000C94A20098
:100060000C94A2000C94A2000000000023002600C3
:10007000290000000000240027002A00CDCCCC3D40
:100080000AD7233C17B7D13877CC2B329595E62485
:100090001FB14F0A000020410000C84200401C462A
:1000A00020BCBE4CCA1B0E5AAEC59D740000000099
:1000B000250028002B0004040404040404040202A4
:1000C00002020202030303030303010204081020D7
:1000D00040800102040810200102040810200000E2
:1000E00000080002010000030407000000000000F7
:1000F0000000581811241FBECFEFD8E0DEBFCDBFDF
:1001000012E0A0E0B1E0E2E2F0E402C005900D925E
:10011000A23AB107D9F724E0A2EAB2E001C01D92E9
:10012000A330B207E1F710E0CAE7D0E004C021979E
:10013000FE010E94E51BC937D107C9F70E94B0181C
:100140000C940F200C940000CF93DF9390E0FC01FF
:10015000E653FF4F24918A549F4FFC0184918823DA
:10016000D1F090E0880F991FFC01EE58FF4FA59148
:10017000B491FC01E455FF4FC591D491623071F404
:100180009FB7F8943C91822F809583238C93E881CC
:100190002E2B28839FBFDF91CF9108958FB7F894BE
:1001A000EC912E2B2C938FBFF6CF3FB7F894809114
:1001B0003F0390914003A0914103B091420326B5C3
:1001C000A89B05C02F3F19F00196A11DB11D3FBF8F
:1001D000BA2FA92F982F8827BC01CD01620F711D5E
:1001E000811D911D42E0660F771F881F991F4A9558
:1001F000D1F708958F929F92AF92BF92CF92DF92E4
:10020000EF92FF924B015C010E94D5006B017C01D3
:100210000E94D5006C197D098E099F09683E7340C4
:1002200081059105A8F321E0821A9108A108B1087F
:1002300088EEC80E83E0D81EE11CF11C81149104E5
:10024000A104B10429F7FF90EF90DF90CF90BF9009
:10025000AF909F908F900895AF92BF92CF92DF9210
:10026000EF92FF920F931F93CF93DF936C017B016B
:100270008B01040F151FEB015E01AE18BF08C017FC
:10028000D10759F06991D601ED91FC910190F0816F
:10029000E02DC6010995892B79F7C501DF91CF9132
:1002A0001F910F91FF90EF90DF90CF90BF90AF9094
:1002B0000895FC01538D448D252F30E0842F90E06C
:1002C000821B930B541710F0CF9608950197089551
:1002D000FC01918D828D981761F0A28DAE0FBF2F1A
:1002E000B11D5D968C91928D9F5F9F73928F90E070
:1002F00008958FEF9FEF089587E493E00C946801D1
:10030000FC01918D828D981731F0828DE80FF11DDF
:10031000858D90E008958FEF9FEF0895FC01918DFA
:10032000228D892F90E0805C9F4F821B91098F73F3
:100330009927089587E493E00E948E0121E0892B9C
:1003400009F420E0822F089580E090E0892B29F0C5
:100350000E949A0181110C9400000895FC01A48D63
:10036000A80FB92FB11DA35ABF4F2C91848D90E0D7
:1003700001968F739927848FA689B7892C93A089BA
:10038000B1898C91837080648C93938D848D981344
:1003900006C00288F389E02D80818F7D80830895D7
:1003A000EF92FF920F931F93CF93DF93EC0181E0C5
:1003B000888F9B8D8C8D98131AC0E889F98980816C
:1003C00085FF15C09FB7F894EE89FF896083E8899F
:1003D000F98980818370806480839FBF81E090E091
:1003E000DF91CF911F910F91FF90EF900895F62E1E
:1003F0000B8D10E00F5F1F4F0F731127E02E8C8DB8
:100400008E110CC00FB607FCFACFE889F9898081FC
:1004100085FFF5CFCE010E94AE01F1CFEB8DEC0F41
:10042000FD2FF11DE35AFF4FF0829FB7F8940B8F19
:10043000EA89FB8980818062CFCFCF93DF93EC0183
:10044000888D8823B9F0AA89BB89E889F9898C91BC
:1004500085FD03C0808186FD0DC00FB607FCF7CF78
:100460008C9185FFF2CF808185FFEDCFCE010E9478
:10047000AE01E9CFDF91CF910895CF92DF92EF9255
:10048000FF92CF93DF93DC011796CC911797D0E0C2
:100490006111DC2F18962C91189730E0220F331F32
:1004A00028593F4F50E040E0F90185919491FC01BB
:1004B000F080BA0190E080E0EF2DEC23ED1310C046
:1004C0004F5F5F4F1D96CD90DD90ED90FC90509763
:1004D0006C157D058E059F0538F36FEF7FEFCB011F
:1004E000DF91CF91FF90EF90DF90CF9008958F92A2
:1004F0009F92AF92BF92CF92DF92EF92FF920F93B3
:100500001F93CF93DF93CDB7DEB7C054D1400FB662
:10051000F894DEBF0FBECDBF2FB7F89440914303D0
:100520005091440360914503709146032FBFFC0135
:1005300001851285238534856A017B01C01AD10AA1
:10054000E20AF30A97018601003D174021053105B3
:10055000B0F4FC018189C05CDE4F0FB6F894DEBFB9
:100560000FBECDBFDF91CF911F910F91FF90EF9004
:10057000DF90CF90BF90AF909F908F9008958C01A7
:10058000FC01418752876387748714821382128229
:100590001182108262E085810E94A40061E070E017
:1005A00080E090E00E94FA0061E0F80185810E94FD
:1005B000A400F801858190E0FC01E252FF4F2491F4
:1005C000FC01E653FF4F3491FC01EA54FF4FE491E4
:1005D000EE23D9F0222359F0233009F44CC008F05F
:1005E0003FC0213009F44DC0223009F44EC0F0E084
:1005F000EE0FFF1FE455FF4FA591B4918FB7F8940C
:10060000EC9130953E233C938FBFF8018681855154
:10061000823008F047C08BE291E10197F1F762E088
:10062000F80185810E94A400F801828990E082305F
:10063000910538F0880F991F880F991F059701972A
:10064000F1F7F89460E0C8010E943D026F3F7F4FD0
:100650008F4F9F4F71F5F801118A789480E07BCF1E
:100660002730B1F02830D1F0243009F0C0CF80918C
:1006700080008F7D03C0809180008F778093800001
:10068000B6CF84B58F7784BDB2CF84B58F7DFBCFD5
:100690008091B0008F778093B000A9CF8091B00097
:1006A0008F7DF9CF64E170E080E090E00E94FA0075
:1006B000B6CF61E0C8010E943D026F3F7F4F8F4F70
:1006C0009F4F49F2CE0101967C015E019FEBA91A72
:1006D0009EEFB90A670160E0C8010E943D02F60181
:1006E000608371838283938361E0C8010E943D022D
:1006F000F6016483758386839783F8E0CF0ED11C5F
:10070000AC14BD0441F7789430E020E0F70180801C
:100710009180A280B3804481558166817781FFEF0B
:100720008F169F06AF06BF0631F04F3F8FEF580779
:100730006807780719F4F801118A90CFF90183E06E
:10074000F595E7958A95E1F7E00FF11F8081880F15
:1007500084169506A606B706F0F080832F5F3F4FFC
:10076000F8E0EF0EF11C2832310581F6F8014481E2
:1007700020818181280F3327331F8281280F311D6B
:100780008381820F932F911D99274817190699F697
:1007900081E0818BE0CE8160E0CF009739F0DC0111
:1007A000ED91FC910284F385E02D0994089508955C
:1007B00082E891E0089586E891E0089585E991E066
:1007C00008950895CF93DF93EC0162EA71E08A8186
:1007D0009B810E94CD0368EB71E08A819B81DF9150
:1007E000CF910C94CD03089581E0089587E493E0C0
:1007F0000E948E0121E0181619060CF020E0822FCD
:100800000895CF92DF92EF92FF92FC01C280D380D5
:10081000E480F580E0915703F091580382E08083F3
:10082000C114F1EEDF06E104F104A1F060E079E02B
:100830008DE390E0A70196010E94C31B215031096E
:10084000410951095695479537952795211580E11E
:100850003807A8F0E0915703F0915803108260E840
:1008600074E88EE190E0A70196010E94C31B21501D
:100870003109410951095695479537952795E091DA
:100880005303F09154033083E0915503F0915603E4
:10089000208310925F03E0915B03F0915C0386E09C
:1008A0008083E0915903F0915A03808180618083B5
:1008B000E0915903F0915A03808188608083E09130
:1008C0005903F0915A03808180688083E091590335
:1008D000F0915A0380818F7D8083FF90EF90DF90AD
:1008E000CF90089580EE91E00895089508950895B9
:1008F00008950F931F93FC0182819381A481B58198
:100900008C019D0104561109210931090D3F194E31
:100910002105310528F4FB01818B928BA38BB48BCD
:1009200081E01F910F9108956F3FA9F0E62FE295A6
:10093000EF7044E0E49F90011124DC01ED91FC9103
:10094000E20FF31F6F7082819381B6E06B9F800D81
:10095000911D1124089590E080E00895FC01A2818A
:10096000B3818081918130E020E0A817B90738F485
:10097000CD010196938382836C9321E030E08481E2
:100980009581820F931F958384830895CF93DF937E
:10099000FC0182819381EB01460F571FA281B38135
:1009A00020813181A217B30758F4C417D50741F04D
:1009B0002991BD016F5F7F4F738362832C93EECFCC
:1009C000A81BB90B84819581A80FB91FB583A48397
:1009D000DF91CF9108958F929F92AF92BF92CF9265
:1009E000DF92EF92FF920F931F93CF93DF93CDB7D8
:1009F000DEB766970FB6F894DEBF0FBECDBF6C01B1
:100A00008E01095E1F4F78018AE0882E912CA12C5F
:100A1000B12CCB01BA01A50194010E94C31B942FF4
:100A2000852F605DF80162938F01A901692F782FEE
:100A3000411551056105710561F7A7014E1B5F0B5B
:100A4000BF01C6010E94C60466960FB6F894DEBFC9
:100A50000FBECDBFDF91CF911F910F91FF90EF900F
:100A6000DF90CF90BF90AF909F908F90089584EECD
:100A700091E0089580EF91E00895982F80336CF015
:100A80008A3324F08F3524F08B3724F481E00895E5
:100A900081341CF081E09B350CF080E00895FC016E
:100AA000828581110AC0A781B085CD01019690870A
:100AB00087838C91818781E08287818508951F9348
:100AC000CF93DF93EC01162F0E944F05811306C0D0
:100AD0001A8681E0DF91CF911F91089580E0FACFCF
:100AE0000F931F93CF93DF938C01EB0189918823A0
:100AF00069F0C8010E944F05882379F0FE01319703
:100B0000908198130DC0F8011286F0CF90E080E03C
:100B1000DF91CF911F910F91089582E090E0F8CF7F
:100B200083E090E0F5CFCF93DF93EC01CE010E94FC
:100B30004F058B304CF489305CF4882359F081E008
:100B40008E8390E080E00BC08D3011F08032B9F7D9
:100B50001A86ECCF8E81811105C081E090E0DF9193
:100B6000CF91089582E090E0FACFCF93DF93DB013D
:100B7000FC01808191810097E1F012962C911297EF
:100B800013964C911397342F3F77FC014381421702
:100B9000130671F7ED91FC911197EC0124962E0F3D
:100BA0003F1FE217F30729F0519149915417C9F3F8
:100BB000DFCFDF91CF910895DC0152969C9152973F
:100BC000915084E0989F900111245096ED91FC91F2
:100BD000E20FF31F228133812115310579F0418124
:100BE0008081481758F481E0840F818386E0489F14
:100BF000200D311D11242115310521F460E070E034
:100C00008FEF0895B901892F8295807F840F089511
:100C1000DF92EF92FF920F931F93CF93DF93EC013C
:100C20007B01D12C688979898A89D816E0F484E01F
:100C3000D89E80011124060F171FD80112966D91BE
:100C40007C916115710541F0D701ED91FC91028015
:100C5000F381E02DC7010995F801138212821082F9
:100C60001182D394DFCF1A8A8FEF8C8BC617D707E8
:100C700061F0D701ED91FC910280F381E02DC70175
:100C80000995D98BC88B84E08B8BDF91CF911F9115
:100C90000F91FF90EF90DF9008954F925F926F92C7
:100CA0007F928F929F92AF92BF92CF92DF92EF92FC
:100CB000FF920F931F93CF93DF9300D000D01F922A
:100CC000CDB7DEB7DC012C912B32E1F12D32D9F515
:100CD0000196EE24E394FC01208130ED320F3A308E
:100CE00010F02E3291F58C0160E070E0CB01F8013C
:100CF000219130ED832E820E39E0381508F444C07E
:100D00006A3949E97407840749E1940708F046C045
:100D1000AAE0B0E09B01AC010E94EB1B912CB12C2E
:100D2000A12C24013501409450946094709446168F
:100D300057066806790690F1680D791D8A1D9B1D7E
:100D40008F01D5CF0196E12CC6CF198229813A8136
:100D50004B815C816D8170E080E090E00F900F909E
:100D60000F900F900F90DF91CF911F910F91FF90F7
:100D7000EF90DF90CF90BF90AF909F908F907F903B
:100D80006F905F904F900895211108C0EE2051F1AF
:100D900061307105810550E89507A0F0F12CBAE0AB
:100DA0008B2E912CA12CB12C6115710530E8830795
:100DB0009105F8F0A50194010E94C31BCA01B90175
:100DC000F394F2CF22E029839B01AC018827992775
:100DD000DC01821B930BA40BB50B8A839B83AC8332
:100DE000BD83B4CF23E029836A837B838C839D8377
:100DF000ADCFF801D8012D918D0130ED320F3A3091
:100E000010F4F394F6CF2E3201F58F010F5F1F4FD0
:100E1000F8010F5F1F4F2081A0EDDA2ED20EB9E04E
:100E2000BD1598F06C3CECEC7E07ECE08E0791056C
:100E300078F7AAE0B0E09B01AC010E94EB1B6D0DBE
:100E4000711D811D911DFA94E3CF20812F7D10E04B
:100E500000E0253409F050C021812D32B1F53296E1
:100E6000CC24C394DF0110E000E02F2D0F2C000CE8
:100E7000330BEAE0BE2EFD01DD9040ED4D0D4A3012
:100E8000B0F5B09EA001B19E500D11240D2DDD0CCA
:100E9000110B00531109040F151FA801420F531F16
:100EA0004732510544F3CC20B9F080E090E0A0E057
:100EB000B0E8E11003C080E090E0DC0121E029838C
:100EC0008A839B83AC83BD8341CF2B3219F031964B
:100ED000C12CC8CF3296FCCF80E090E0A0E8BFEFF5
:100EE000E110ECCF80E090E0A0E8BFE7E7CFCC20B6
:100EF00019F01195019511092081211126CF0F0DAF
:100F0000111DF7FC1A950E94AD1C44E9A42E40E087
:100F1000B42E101611063CF01195019511095CE7ED
:100F2000A52E50E0B52ED12CC12C01151105E9F0EC
:100F3000F6E0CF16D104A9F000FF0DC0F601EE0FC8
:100F4000FF1FEE0FFF1FEA0DFB1D25913591459107
:100F500054910E94641D159507952FEFC21AD20A6D
:100F6000E4CF60E070E080EC9FE7E110905821E072
:100F700029836A837B838C839D83E8CECF92DF9223
:100F8000EF92FF920F931F93CF93DF937C016B013E
:100F90008A01FC01C081D1814F3F510509F0B0F4B5
:100FA000E881F9810480F581E02D4B5F5F4FCE0130
:100FB0000995009759F0FC010383DF91CF911F91B0
:100FC0000F91FF90EF90DF90CF900895E881F98125
:100FD0000280F381E02DB601CE01099581E0F70191
:100FE000828390E080E0E9CF1F93CF93DF93EC0101
:100FF000162F6A817B816115710589F04C815D81B5
:10100000FB0183818417150651F4440F551F4F5F70
:101010005F4F888199810E94BE079B838A838A8162
:101020009B81009759F02C813D81A9014F5F5F4F53
:101030005D834C83820F931FFC011483DF91CF915A
:101040001F9108959F92AF92BF92CF92DF92EF923D
:10105000FF920F931F93CF93DF9300D000D01F9286
:10106000CDB7DEB78C010E944F05D82EF80112864D
:10107000F12CE12C60EFC62EC8010E944F05F8014B
:101080001286D81609F4B3C0811113C082E090E033
:101090000F900F900F900F900F90DF91CF911F91B5
:1010A0000F91FF90EF90DF90CF90BF90AF909F9007
:1010B00008958C3509F099C0C8010E944F05882316
:1010C00029F3E7EFF1E0853709F083C0F8011286D4
:1010D00054E0952EB12CA12CC8010E944F05882305
:1010E000A9F2813434F48053803130F083E090E011
:1010F000CFCF8F7D8753F8CF44E0AA0CBB1C4A9515
:10110000E1F7A82AF80112869A949110E5CFC5015B
:10111000985D8115944020F47501F3E0FF22ACCF77
:10112000C5019C5D81159440A8F483E0B822B70105
:10113000762F6627770F770F6A297B2990E080E06A
:101140000196603871058105910540F4C8010E943F
:10115000F40792CFB50190E080E0F3CF1982262FFB
:101160002F7320682A8326E0969587957795679553
:101170002A95D1F76032710580F4606C6B835E0153
:10118000E4E0AE0EB11CF50162915F01662309F443
:1011900073CFC8010E94F407F6CF262F2F73206863
:1011A0002B8386E0769567958A95E1F76031710526
:1011B00038F4606E6C835E01F5E0AF0EB11CE3CFD6
:1011C00060686C83CD825E0126E0A20EB11CDBCF8D
:1011D00032969081992309F489CF8913F9CF8181BF
:1011E000882309F483CFF8011286682FAFCF82815C
:1011F0009381892B19F484E090E04ACF90E080E05D
:1012000047CFAF92BF92CF92DF92EF92FF920F93B0
:101210001F93CF93DF9300D000D0CDB7DEB7DC01B2
:1012200012962D913C9113972C5F3F4F14964D9140
:101230005C914430510580F57901D901E0E0142F2B
:10124000022FFA2FF21BF11730F4DD90F1E0D110EC
:10125000F0E0EF2BF6CFE1111FC082E0FB018483A9
:101260008E2D801B811728F4D7018D917D018193EC
:10127000F7CF640F751FFB0110820F900F900F9036
:101280000F90DF91CF911F910F91FF90EF90DF9022
:10129000CF90BF90AF9008957B018C01420F531FF8
:1012A000DA011C92FC01C080D180A480B5803A8311
:1012B0002983AB828B2D8F778C83BE016F5F7F4F2D
:1012C000C60103960E94B5050097D9F4D80112967D
:1012D0006D917C91A501C6010E94BE07D801ED91D8
:1012E000FC9123813481DC012D933C93948383838F
:1012F000F8011382128225E0F70124839183808311
:10130000BCCFDC0112962C9112972F5F12962C9372
:10131000F2CFDB01ED91FC9111970280F381E02D7A
:10132000BC01CD010994AF92BF92CF92DF92EF92B0
:10133000FF920F931F93CF93DF93EC018B018C816E
:1013400080FF24C0A881B981FB018381948130E0B2
:1013500020E00097D9F0A817B907D1F5F80160810E
:10136000718112968C911297815012968C931297DC
:1013700081110CC08D919C9111972115310529F196
:10138000F90191838083CD010E9489098C81807647
:1013900031F1209721F1F8805801F5E1AF0EB11C31
:1013A0008FEFF816D1F06F2DC5010E9494046C01E7
:1013B000FC01E580B8010E949309F801818DF601D6
:1013C0008083F801F18EFE2CEBCF94838383DBCFF7
:1013D0009C01FC0180819181BCCFF882F9821C8242
:1013E000DF91CF911F910F91FF90EF90DF90CF9001
:1013F000BF90AF9008950F931F93CF93DF93EC01AD
:10140000088119818B819C81009749F0FC01208122
:1014100031813C832B83B8010E948909F3CF688115
:101420007981CE010596DF91CF911F910F910C9498
:101430000806CF93DF93EC01CB01CF3FD10509F034
:10144000B0F4BE016B5F7F4F6C177D0780F0DC014D
:10145000ED91FC910190F081E02D0995009721F02C
:10146000FC01C38321E02283DF91CF91089590E0B6
:1014700080E0FACF8F929F92AF92BF92CF92DF928D
:10148000EF92FF920F931F93CF93DF9300D000D082
:10149000CDB7DEB7DC0169014A014115510509F4F8
:1014A00056C077FF08C084E014968C9314974D9330
:1014B0005C9381E04DC07F777B016430710518F546
:1014C000FA0190E0242F8E2F8819861730F481912D
:1014D00031E0811130E0932BF6CF911114C082E0FE
:1014E00014968C9314978D01842F821B861738F4E1
:1014F000FA018191AF01F80181938F01F5CFA60F19
:10150000B11D1C92D6CF8D01F601A080B1809A82C8
:1015100089826B837C83BE016F5F7F4FC601039618
:101520000E94B505009751F0FC0122812F5F2283B4
:1015300025E0F801248391838083BBCFB501C701E7
:101540000E94190A0097A9F481E0F601828380E0E5
:101550000F900F900F900F90DF91CF911F910F91EF
:10156000FF90EF90DF90CF90BF90AF909F908F90C3
:101570000895E981FA81DC011496A7014E0F5F1FDF
:10158000E417F50719F021912D93FACFFC01EE0D28
:10159000FF1D1482F60123813481FC0131832083F5
:1015A000F60194838383C4CF87ED91E008958AE0A8
:1015B00092E0089583E192E008950895FC01858505
:1015C000811103C08AE192E0089588E192E00895D4
:1015D000FC018585811103C081E292E008958CE1D0
:1015E00092E00895CF92DF92EF92FF92CF93FC01A9
:1015F000C585CC23E1F0C580D680E780F084A701C3
:101600009601C701B6010E94D11D81110EC020E0D4
:1016100030E0A901C701B6010E945F1DC1E020E0D2
:1016200030E048E452E487FF1DC0C0E021C0C1841F
:10163000D284E384F484A7019601C701B6010E9415
:10164000D11D811115C020E030E040EA51E4C7010E
:10165000B6010E945F1D87FD0BC0C1E020E030E0B5
:1016600044EB52E4C701B6010E94721C1816ECF25A
:101670008C2FCF91FF90EF90DF90CF9008958F92B5
:101680009F92AF92BF92EF92FF921F93CF93DF93FF
:10169000EC01EA80FB80C7010E947702882341F0B9
:1016A000F70186818C3009F460C038F48B30E1F0AA
:1016B00060E070E080EC9FE73EC085518230C0F76B
:1016C0001281612F70E0762F662766277F778381EE
:1016D000682B90E080E00E94AD1C2DEC3CEC4CECC3
:1016E0005DE30E94641D5CC0628170E090E080E078
:1016F0000E94AD1C4B015C01F701138117FF0AC06A
:10170000AC019B0160E070E080E89FEB0E94051C4B
:101710004B015C011F70612F70E090E080E00E943F
:10172000AF1C2DEC3CEC4CEC5DE30E94641DA5016C
:1017300094010E94061C6D837E838F839887EA80C4
:10174000FB80C7010E947702882351F0F701868150
:101750008B3030F08D3040F18551823008F454C028
:1017600060E070E080EC9FE73AC01281612F70E08A
:1017700090E080E00E94AD1C4B015C01F7016381A9
:101780006F7070E090E080E00E94AF1C2DEC3CECAC
:101790004CEC5DE30E94641DA50194010E94061CAF
:1017A00017FFC9CF9058C7CF618170E090E080E00B
:1017B0000E94AF1C2DEC3CEC4CEC5DE30E94641DE0
:1017C0004B015C01F701608170E090E080E00E94D5
:1017D000AF1C9B01AC01C501B4010E94061C6987C6
:1017E0007A878B879C872D85222321F06D817E81CE
:1017F0008F819885DF91CF911F91FF90EF90BF90DF
:10180000AF909F908F9008956081718176276727B0
:10181000762790E080E00E94AD1C2DEC3CEC4CEC77
:101820005DE30E94641DDBCF8F929F92AF92BF92C7
:10183000CF92DF92EF92FF920F931F93CF93DF939C
:10184000EC0165E272E08A819B810E94CD03809168
:10185000B50281111FC082E08093A7028BE08093C4
:10186000A802ECECF0E0E491E093A902E8EBF0E0F0
:10187000E491E093AA0280E89EE3A0E0B0E08093C8
:10188000AF029093B002A093B102B093B20281E094
:101890008093B50222EAE22E22E0F22E62E08091ED
:1018A000A7020E94A4002FB7F8948091430390915F
:1018B0004403A0914503B09146032FBF805D97403C
:1018C000A109B1098093AB029093AC02A093AD0241
:1018D000B093AE0287E38093B4028EE090E00E9462
:1018E000D61D8C0136E1C32E31E0D32EFC01D1820E
:1018F000C082F382E282812C912C40ECA42E4FE72F
:10190000B42E85829682A782B08681869286A3862F
:10191000B48681E085878EE090E00E94D61DDC01D0
:101920001196DC92CE921396FC92EE921297159637
:101930008D929D92AD92BC92189719968D929D9220
:10194000AD92BC921C971D961C921D97EC85E430BD
:1019500070F40115110559F081E08E0F8C87F0E0CD
:101960003296EE0FFF1FEC0FFD1F11830083EC85F5
:10197000E43068F4109759F081E08E0F8C87F0E026
:101980003296EE0FFF1FEC0FFD1FB183A083CE0137
:10199000DF91CF911F910F91FF90EF90DF90CF904B
:1019A000BF90AF909F908F900C94E203CB010C946A
:1019B000D61D0C94721E0C94721E0C94721E0C9404
:1019C000721E0C94721E0C94721E0C94721ECB012B
:1019D0000C94721E6115710561F0FB0101900020ED
:1019E000E9F73197AF01461B570B87E493E00E945C
:1019F0002C0142E050E061E472E087E493E00C9453
:101A00002C01FB0101900020E9F73197AF01461B43
:101A1000570B0C94C604CF92DF92EF92FF920F9374
:101A20001F93CF93DF938C016B017A0162E20E94D6
:101A3000AE04E601EC0CFD1CEC16FD0699F0699174
:101A4000E7EFF1E0D480DD20C9F03296838168139E
:101A5000F9CF6CE5C8010E94AE046D2DC8010E944B
:101A6000AE04EACF62E2C801DF91CF911F910F91DE
:101A7000FF90EF90DF90CF900C94AE046111EECF09
:101A800064E472E0C8010E94010DD6CFBF92CF92EC
:101A9000DF92EF92FF920F931F93CF93DF93D0E0EB
:101AA000C0E0009739F0EC0109900020E9F7219798
:101AB000C81BD90BBD2EE894B7F8E894B7F84115C8
:101AC0005105B1F06A017B018C01CA010E949309A2
:101AD0009701A8016C2F7B2DC601DF91CF911F913B
:101AE0000F91FF90EF90DF90CF90BF900C943A0A47
:101AF000DF91CF911F910F91FF90EF90DF90CF90EA
:101B0000BF900895FC0130E020E06115710549F0B7
:101B1000DB010D900020E9F79D0121503109261BC2
:101B2000370B718360832283832F8F779381907823
:101B3000982B40FB97F9938308952F923F924F92F1
:101B40005F926F927F928F929F92AF92BF92CF924D
:101B5000DF92EF92FF920F931F93CF93DF93CDB756
:101B6000DEB76B970FB6F894DEBF0FBECDBF7C011A
:101B70008B01DC0114968C911497863009F4A3C272
:101B8000F8F4833009F492C258F440E0B70182308F
:101B900009F47BC26BE472E0C8010E94010D81C2AE
:101BA000843009F46EC28530A9F7ED91FC91438130
:101BB00050E0BF016C5F7F4FC8010E940B0D1CC23B
:101BC0008E3009F443C0E0F48A3009F477C28C30D7
:101BD00009F7CD90DD90ED90FC90B701A601F7FEDE
:101BE0000BC06DE2C8010E94AE0444275527BA011C
:101BF0004C195D096E097F09C8010E94EB04FCC104
:101C0000803209F415C2803429F66BE5C8010E94C0
:101C1000AE04D701FC90BFEFFB1609F4E9C1F8014F
:101C2000868197816F2D45960E9494047C01B801AE
:101C30000E949D0DD7011596FC90BFEFFB1609F48D
:101C4000D7C16CE2C8010E94AE04E5CFF7018080E5
:101C50009180A280B380A5019401C501B4010E94C6
:101C6000721C882331F06BE472E0C8010E94010D00
:101C7000C3C120E030E0A901C501B4010E94721C7B
:101C8000882371F0A5019401C501B4010E94061CCE
:101C90009B01AC01C501B4010E94721C882319F399
:101CA00020E030E0A901C501B4010E94721C87FF49
:101CB00008C06DE2C8010E94AE04B7FAB094B7F84C
:101CC000B09420E836E948E15BE4C501B4010E9424
:101CD0005F1D87FD83C074E1C72ED12CE0E2EE2E9C
:101CE000F12C312C212CF601EC56FF4F65917591AA
:101CF00085919491A50194010E94721C18167CF0A4
:101D0000F601E458FF4F2591359145915491C50155
:101D1000B4010E94641D4B015C012E0C3F1CF59424
:101D2000E794F4E0CF1AD1082CEFC2162FEFD206B9
:101D3000D1F63FEF3F8B20E030E0A901C501B401AF
:101D40000E945F1D18160CF051C02CEA35EC47E2DA
:101D500057E3C501B4010E94721C18160CF446C06A
:101D6000AF89B4E0AB02C0011124D12CC12CFC011D
:101D7000E458FF4F2F019C012C563F4F39013F89FA
:101D80003F3F09F433C0F201EC0DFD1D65917591E3
:101D90008591949120E030E040E251E40E94641D7E
:101DA000A50194010E945F1D18167CF4F301EC0D4F
:101DB000FD1D2591359145915491C501B4010E94B5
:101DC000641D4B015C012E183F08F594E7948F8940
:101DD00081508F8B94E0C91AD108D1CF50E2E52E03
:101DE000F12C85E08F8B312C212CA5CFC501B401BE
:101DF0000E947E1C6B017C012B013C0180E492E47B
:101E0000AFE0B0E0888F998FAA8FBB8F96E09F8B51
:101E1000AAE04A16510461047104E0F0688D798DDE
:101E20008A8D9B8D2AE030E040E050E00E94C31B89
:101E3000288F398F4A8F5B8FBF89B150BF8BC30109
:101E4000B2012AE030E040E050E00E94C31B2901CB
:101E50003A01DECFC701B6010E94AD1C9B01AC0167
:101E6000C501B4010E94051C4B015C01688D798D90
:101E70008A8D9B8D0E94AD1C9B01AC01C501B401F4
:101E80000E94641D2B013C010E947E1C4B015C01E1
:101E90000E94AD1C9B01AC01C301B2010E94051C54
:101EA0009B01AC010E94061C0E947E1C860E971EA0
:101EB000A81EB91E888D998DAA8DBB8D881699068E
:101EC000AA06BB06C0F09FEFC91AD90AE90AF90AA7
:101ED0002114310439F1AAE0CA16D104E104F10455
:101EE00008F1BFEF2B1A3B0A812C912C5401C12C15
:101EF000D12C7601C3942AE0422E512C612C712CF6
:101F0000C501B401A30192010E94C31B672B682B7A
:101F1000692B61F4EF891E164CF449015A01E15016
:101F2000EF8BEECF812C912C5401E5CFB701A601A8
:101F3000C8010E94EB04FF89FF2391F16E0121E1AA
:101F4000C20ED11CF88F76019AE0492E512C612CDB
:101F5000712C388D3150388F3F3F69F0C501B40185
:101F6000A30192010E94C31B605DD6016E936D01B7
:101F700049015A01EECFBF898B2F90E0BC016095DB
:101F80007095F701E81BF90B31978EE280834427A7
:101F90005527461B570B6E0D7F1DC8010E94C604B6
:101FA0002114310449F165E6C8010E94AE047101B3
:101FB00037FE07C06DE2C8010E94AE04F194E194BF
:101FC000F108FE0177969F018AE0C82ED12CC70147
:101FD000B6010E94AF1B805D82937B01672BB9F72E
:101FE000A9014E1B5F0BBF01C8010E94C60404C0BB
:101FF0006DE5C8010E94AE04F801848195816B965D
:102000000FB6F894DEBF0FBECDBFDF91CF911F9109
:102010000F91FF90EF90DF90CF90BF90AF909F9087
:102020008F907F906F905F904F903F902F9008958A
:102030006BE7C8010E94AE04D701FC90EE24E39444
:10204000BB24B394BFEFFB16D1F0F80186819781D2
:102050006F2D45960E9494046C01B8010E949D0D5D
:10206000D6011596FC90BFEFFB1639F06AE3E1103C
:1020700001C06CE2C8010E94AE04EB24E3CF6DE71F
:10208000B8CFF7016081718141E0CE0101960E94D5
:10209000820D4B815C815F7769817A81C8010E94E2
:1020A0000B0DD80114968D919C91A9CFED91FC91C7
:1020B000438150E0BF016C5F7F4F96CF4D915D91A2
:1020C0006D917C9199CD8C9160E572E08111CDCDBF
:1020D00065E572E0CACDEF92FF920F931F93CF9305
:1020E000DF93CDB7DEB728970FB6F894DEBF0FBEEB
:1020F000CDBFDC01CB018A0179019A012E0D3F1D74
:102100003A8329835C834B831E821D82B887AF8309
:102110000097C9F0BE016F5F7F4F0E949D0D8E1525
:102120009F0520F4F801E80FF91F108228960FB6DA
:10213000F894DEBF0FBECDBFDF91CF911F910F91FD
:10214000FF90EF9008956BE472E0CE0101960E943B
:10215000010D8D819E81E3CFCF93DF9300D000D01E
:10216000CDB7DEB7FC018481843061F08530E1F0C9
:1021700040E0BF01823049F060E070E080E090E034
:1021800090680BC06081718141E0CE0101960E9490
:10219000820D69817A818B819C810F900F900F90C5
:1021A0000F90DF91CF91089580819181FC0123816F
:1021B00030E00496BC01C9019F779F77EECFBF92B4
:1021C000CF92DF92EF92FF920F931F93CF93DF9303
:1021D000D62EC72E8A01452B09F442C0E901659627
:1021E000FC016081CE010E949404FF24FA940097C0
:1021F00011F0FC01F580EE24E394BB24B394009726
:1022000079F1EE20B1F00E94AC102D2D3C2D3F77DE
:10221000AC015F772417350761F4D801E62FF72F5B
:10222000200F311F2A173B0771F09D91819198175C
:10223000C9F3EB246F2DCE010E9494040097F9F2AC
:10224000FC01F580DCCF6F2DCE01DF91CF911F9186
:102250000F91FF90EF90DF90CF90BF900C9494047B
:1022600090E080E0DF91CF911F910F91FF90EF9070
:10227000DF90CF90BF900895FC0120813181C9018A
:102280004A964281538164817581009759F0D90142
:102290005E96EC91E03211F090E080E0009711F052
:1022A0000C94DF1090E080E00895BF92CF92DF920F
:1022B000EF92FF920F931F93CF93DF93EC01198D51
:1022C0001F3F81F0612F45960E949404FC0180819C
:1022D000898F309709F477C014828FEF8583BF010F
:1022E000812F76C06C0135E0C30ED11CE880F980E7
:1022F0008F89882341F0C6010E94DC05E62FF72F65
:10230000182F309749F71F89988D191324C0103161
:1023100009F459C0110F6D897E89D701ED91FC91A7
:10232000B4E01B9FA0011124C616D70609F044C0D3
:102330000190F081E02DBA01C7010995009709F4D9
:1023400042C020E1F601DC0101900D922A95E1F7EF
:102350009E8B8D8B188F0D891E898F8921E0280F08
:102360002F8BE4E08E9FC0011124080F191F90E10C
:10237000B92E203111F48FE0B82EF6E0BF9EB001E7
:102380001124D701ED91FC910190F081E02DC7015E
:102390000995F80193838283892B09F4B12CD80124
:1023A000BC9211961C92012B71F0C6010E94DC05B3
:1023B000E62FF72F182F8DCF0480F581E02DC70170
:1023C0000995009729F681E08A8360E070E08FEF3D
:1023D000DF91CF911F910F91FF90EF90DF90CF9001
:1023E000BF9008953F924F925F926F927F928F922B
:1023F0009F92AF92BF92CF92DF92EF92FF920F9394
:102400001F93CF93DF9300D000D01F92CDB7DEB7DC
:102410008C017B01742E0E9493056C01892B09F0BD
:1024200050C0C8010E944F05863609F4BEC164F54C
:10243000873229F08B35A1F1823209F0BFC1F80152
:102440001582148282819381892B99F4C080D18076
:10245000D6016D917C918FE190E00E94190A00975E
:1024600019F421E0F6012283D80113969C938E93F0
:102470001297C8010E9422086C01892B11F5B7013F
:10248000C8010E9401091DC0843709F46EC18B3751
:1024900009F47CC08E3609F091C16BE472E06CC126
:1024A00080E4D70114968C931497E114F10421F081
:1024B0008FEF8C9311968C9371101BC025E0C22E68
:1024C000D12CC6010F900F900F900F900F90DF91BD
:1024D000CF911F910F91FF90EF90DF90CF90BF9021
:1024E000AF909F908F907F906F905F904F903F90B4
:1024F0000895F8011286C8010E949305009751F5CE
:102500006DE5C8010E945F058111DBCF7A94D80187
:102510001B968D909C90C4010E945511682E5B0102
:10252000672B21F494E0C92ED12CCBCFF701618128
:102530006F3F91F0C40145960E949404DC0115960A
:102540006C92F7016182472DB501C8010E94F2111A
:10255000009739F06C01B5CFD7018C9311968C930D
:10256000F2CFC8010E9493050097A1F76DE5C8015D
:102570000E945F058111A5CF6CE2C8010E945F0532
:102580008111C5CF83E0C82ED12C9BCF80E2F7010B
:102590008483E114F10419F08FEF80838183772025
:1025A00009F48CCFD8011A961C92C8010E94930599
:1025B000009781F66DE7C8010E945F05811181CF08
:1025C000552453947A94F801158214828281938160
:1025D000892B91F4C080D180D6016D917C918FE1DF
:1025E00090E00E94190A009711F4F6015282D80176
:1025F00013969C938E931297C8010E944F058732C1
:1026000001F18232F1F0C8010E944F05D82E0E94DC
:102610003D05882309F4B6CFF80112866D2DC80157
:102620000E94F407C8010E944F05D82E0E943D0564
:102630008111F2CFD80112968D919C91892B41F492
:1026400071CFC8010E9422086C01892B09F039CF93
:10265000C8010E9493056C01892B09F032CF6AE30F
:10266000C8010E945F05882309F48CCFD801129617
:10267000ED91FC91139714968D919C911597E80F0D
:10268000F91F148214966D917C9115977F771B9694
:102690002D913C911C9712968D919C910496472FF9
:1026A0004F77B62DB0786B2E642AE89467F8AC01AA
:1026B000762DC7010E94DF106C01F8018384948499
:1026C000009759F5C4010E945511382E5B01672B04
:1026D00009F428CFC4010E945511482E962FC92E07
:1026E000D72EC114D10409F41DCFD50115964C92F3
:1026F000F70161816F3F71F0C40145960E94940417
:10270000DC0115963C92F7014182B501C8010E9497
:10271000010906C030824182F8CFB4010E949309BA
:10272000472DB601C8010E94F2116C01892B09F0F6
:10273000C8CEC8010E9493056C01892B09F0C1CE57
:102740006DE7C8010E945F058111BBCE6CE2C80134
:102750000E945F05882309F415CFC8010E949305E4
:102760006C01892B09F42FCFACCE86E0F70184836E
:1027700081E0808360E572E0C8010F900F900F90B8
:102780000F900F90DF91CF911F910F91FF90EF90DD
:10279000DF90CF90BF90AF909F908F907F906F9081
:1027A0005F904F903F900C94700586E0D70114968F
:1027B0008C9314971C9265E572E0DECFC8010E94ED
:1027C0004F054801BDE08B0E911CB12C782CA92C33
:1027D000803384F08A3384F4EFE3BE16A9F0D80185
:1027E0001A961C92B394F40181934F01C8010E9480
:1027F0004F05EECF8B3281F393ED980F923060F35B
:10280000982F9F7D953441F30B0D111DD8011D9616
:102810001C92872D9A2D0E944D063A834B835C8330
:102820006D838A819B81AC81BD812230A9F02330E8
:1028300059F0213009F0A6CE2EE0F70124838083E1
:102840009183A283B3833DCE2AE0F7012483808362
:102850009183A283B38335CE2CE0F7CF6F927F9222
:102860008F929F92AF92BF92CF92DF92EF92FF92A0
:102870000F931F93CF93DF93EC014115510589F41A
:1028800090E080E0DF91CF911F910F91FF90EF904A
:10289000DF90CF90BF90AF909F908F907F906F9080
:1028A00008958C8181111AC080E28C83209741F3B6
:1028B0008FEF8883898379014A015B01CE010E94F1
:1028C000DF100097F9F6C7010E945511682E6B01C1
:1028D000672B49F410E000E0C801D4CF803281F6C4
:1028E000209749F7CDCFC7010E945511782E962F1A
:1028F000092F172F0115110569F39701B501A401DF
:10290000C6010E943A0A882329F3F601758269817B
:102910006F3F41F0C70145960E949404FC01658217
:102920007982DACF6882FCCFFC01818192810097A5
:1029300041F02381348145815681678170850C94F3
:102940002E1490E080E00895FC0120813181C901BE
:102950004A9631F042815381648175810C942E1422
:1029600090E080E00895EF92FF920F931F93CF9332
:10297000DF93EC018B01E880F9800E94A414AC0184
:10298000B701F801808191810E94460DE881F981AB
:1029900080E0309719F0828191E08927DF91CF9113
:1029A0001F910F91FF90EF9008952F923F924F92B9
:1029B0005F926F927F928F929F92AF92BF92CF92CF
:1029C000DF92EF92FF920F931F93CF93DF93CDB7D8
:1029D000DEB7C852D1400FB6F894DEBF0FBECDBFF0
:1029E000CE5DDE4F99838883C252D1408E010F5F46
:1029F0001E4F80E091E0D80111969C938E93129621
:102A00001C92129714961C921E921397C801059659
:102A100056969C938E93559757961C92579784E0A1
:102A200058968C9358978FEF59968C9359975E963A
:102A30001C925E975F968C938FB7F89480904303B7
:102A400090904403A0904503B09046038FBF1A8333
:102A500009838BE592E09C838B8382E08D838E815A
:102A6000807880688E83CE0101960E94A4147C0138
:102A7000009751F0B8010E9493098AE0F70184831E
:102A800080829182A282B3821A8309838EE592E0CA
:102A90009C838B8384E08D838E81807880688E8395
:102AA000CE0101960E94A4145C01009749F0B80180
:102AB0000E94930980E2F50184838FEF80838183F4
:102AC000F12CCF5DDE4F1882C152D14093E6892EA2
:102AD00092E0992ECE5DDE4FA881B981C252D140DD
:102AE0001C968C91CF5DDE4FB881C152D140B81792
:102AF00008F0BEC0EB2FF0E03296EE0FFF1FCE5D68
:102B0000DE4F88819981C252D140E80FF91F2080A1
:102B100031802114310409F49FC0D101ED91FC9161
:102B20000190F081E02DC1010995CB5DDE4F6883F6
:102B300079838A839B83C552D140D101ED91FC9169
:102B40000280F381E02DC1010995CC5DDE4F8883C1
:102B5000C452D140882309F47FC0D101ED91FC918A
:102B60000480F581E02DC101099530E020E0009757
:102B700049F0FC0101900020E9F79F012150310943
:102B8000281B390BBB82AA821D830C839F838E83F3
:102B90002887832F8F778987CE0101960E9494140E
:102BA0007C01009769F0B8010E949309E0E2D70127
:102BB0001496EC931497FFEFFC938FEF11968C9380
:102BC000FB82EA821D830C839F828E8295E0988728
:102BD0008985807880688987CE0101960E94941447
:102BE0006C010097A1F0B8010E949309EEE0D601B4
:102BF0001496EC93CB5DDE4F88819981AA81BB81CD
:102C0000C552D140F60180839183A283B383D10161
:102C1000ED91FC910680F781E02DC10109956C01D1
:102C2000FB82EA821D830C83E9E6F2E0FF83EE83F8
:102C3000F4E0F8878985807880688987CE010196DD
:102C40000E949414B801AC01C6010E94460DCC5DEF
:102C5000DE4FF880C452D140CF5DDE4F8881C15233
:102C6000D1408F5FCF5DDE4F8883C152D14032CFDC
:102C70001A8309838EE692E09C838B8385E08D83A3
:102C80008E81807880688E83CE0101960E94A41484
:102C90006C01009749F0B8010E94930986E0D601C3
:102CA00014968C931497FC92B801665E7F4FC8010E
:102CB00020E031E0AE014F5F5F4F0E946B10BE011C
:102CC0006F5F7F4FCE5DDE4FE881F981C252D14008
:102CD000828193810E94CD03C8010E94FB09C85DD7
:102CE000DE4F0FB6F894DEBF0FBECDBFDF91CF91A0
:102CF0001F910F91FF90EF90DF90CF90BF90AF901A
:102D00009F908F907F906F905F904F903F902F900B
:102D10000895CF92DF92EF92FF920F931F932FB7F8
:102D2000F89440914303509144036091450370919E
:102D300046032FBFFC0105851685278530896A016A
:102D40007B01C01AD10AE20AF30A01891289238998
:102D50003489C016D106E206F30660F0458756872F
:102D60006787708B1F910F91FF90EF90DF90CF904E
:102D70000C94D5141F910F91FF90EF90DF90CF909E
:102D800008950C948916CB010E94D51481E0089512
:102D9000BF92CF92DF92EF92FF920F931F93CF9348
:102DA000DF93CDB7DEB7C25AD1090FB6F894DEBFB4
:102DB0000FBECDBF7B018E010F571F4F80E091E00A
:102DC000D80111969C938E9312961C92129714968A
:102DD0001C921E921397C801059656969C938E934B
:102DE000559757961C92579784E0D82E5896DC92A8
:102DF00058978FEF59968C9359975E961C925E97D1
:102E00005F968C93DB01ED91FC910084F185E02DC0
:102E1000CB010995CF55DF4F99838883C15AD040A4
:102E20001A83098384E792E09C838B8386E08D83F9
:102E30008E81807880688E83BE016F557F4FCE0172
:102E400001960E94B314D701ED91FC910284F385A1
:102E5000E02DC7010995CF55DF4F99838883C15A6B
:102E6000D0401A8309838BE792E09C838B83DD82B9
:102E70008E81807880688E83BE016F557F4FCE0132
:102E800001960E94B314D701ED91FC910484F5855D
:102E9000E02DC7010995CF55DF4F99838883C15A2B
:102EA000D0401A83098380E892E09C838B8397E06B
:102EB000D92EDD828E81807880688E83BE016F5529
:102EC0007F4FCE0101960E94B314F701B4841A8398
:102ED000098388E892E09C838B83DD828E818078F1
:102EE00080688E83CE0101960E94A4146C01009725
:102EF00081F0B8010E9493098AE0D60114968C9360
:102F00008B2D90E0B0E0A0E0F60180839183A28356
:102F1000B383B801665E7F4FC80120E830E0AE01A0
:102F20004F5F5F4F0E946B10BE016F5F7F4FD701F5
:102F300012968D919C910E94CD03C8010E94FB09BD
:102F400081E0CE55DF4F0FB6F894DEBF0FBECDBF88
:102F5000DF91CF911F910F91FF90EF90DF90CF9075
:102F6000BF900895CB01BA010C94FB1E1F920F92E3
:102F70000FB60F9211242F933F938F939F93AF938C
:102F8000BF938091430390914403A0914503B09176
:102F9000460330913E0323E0230F2D3758F5019669
:102FA000A11DB11D20933E038093430390934403DE
:102FB000A0934503B093460380913F039091400353
:102FC000A0914103B09142030196A11DB11D8093D0
:102FD0003F0390934003A0934103B0934203BF91FA
:102FE000AF919F918F913F912F910F900FBE0F90B6
:102FF0001F90189526E8230F0296A11DB11DD2CF70
:103000001F920F920FB60F9211242F933F934F935D
:103010005F936F937F938F939F93AF93BF93EF9340
:10302000FF9387E493E00E94AE01FF91EF91BF917F
:10303000AF919F918F917F916F915F914F913F9150
:103040002F910F900FBE0F901F9018951F920F9207
:103050000FB60F9211242F938F939F93EF93FF93AB
:10306000E0915703F09158038081E0915D03F09166
:103070005E0382FD1BC09081809160038F5F8F7320
:1030800020916103821741F0E0916003F0E0E95B79
:10309000FC4F958F80936003FF91EF919F918F91EB
:1030A0002F910F900FBE0F901F9018958081F4CF35
:1030B000E7E4F3E01382128288EE93E0A0E0B0E050
:1030C00084839583A683B7838AE491E09183808388
:1030D00085EC90E09587848784EC90E097878687DD
:1030E00080EC90E0918B808B81EC90E0938B828BD5
:1030F00082EC90E0958B848B86EC90E0978B868BAE
:10310000118E128E138E148EEAEEF3E01382128269
:103110001486158616861786108A80ED97E0A0E043
:10312000B0E0818B928BA38BB48B158214821782B3
:103130001682118610861386128684E791E09183A9
:103140008083E4EEF3E08CE591E09183808380E07E
:1031500092ECA1E0B0E082839383A483B5830895C9
:10316000CF93DF93CDB7DEB7C457D1090FB6F8942C
:10317000DEBF0FBECDBF789484B5826084BD84B5B8
:10318000816084BD85B5826085BD85B5816085BD62
:1031900080916E00816080936E001092810080911A
:1031A00081008260809381008091810081608093A2
:1031B0008100809180008160809380008091B100C7
:1031C00084608093B1008091B00081608093B000F2
:1031D00080917A00846080937A0080917A00826086
:1031E00080937A0080917A00816080937A00809148
:1031F0007A00806880937A001092C10084EE93E098
:103200000E94010484EE93E09093ED038093EC031D
:103210008AEE93E00E94140C26E2222E21E0322E48
:103220003EE4C32ED12CCC0EDD1E25E0C20ED11CF7
:103230008EE490E08C0F9D1F4A96E5969FAF8EAF6F
:10324000E59792E3A92E91E0B92E8AEE93E00E94D1
:1032500089168EE3882E81E0982E84EE93E00E94FA
:10326000F603882309F432C287E493E00E946801E0
:10327000E0913D038A30910521F08D30910509F0F0
:1032800019C2EE2351F3F0E0E354FD4F1082809118
:10329000BD02882309F498C08B3709F0CAC1A0E0A9
:1032A000B1E06096BFAFAEAF609761961FAE619719
:1032B00063961FAE1EAE6397A596DFAECEAEA59702
:1032C000A6961FAEA69784E0A7968FAFA7978FEF1D
:1032D000A8968FAFA897AD961FAEAD97AE968FAF5D
:1032E000AE97BD01C6010E94080661961FAE6197A8
:1032F00060960EAD1FAD609763968EAD9FAD6397E0
:10330000009759F0FC012081318163963FAF2EAFC9
:103310006397B8010E948909EFCFAD961FAEAD97B4
:103320008EE490E08C0F9D1F9A8389831C821B8200
:103330001E821D821F828DEB92E0998788871B86F3
:10334000AEE4B0E0AC0FBD1FBD87AC874AE0E596A8
:103350006EAD7FADE597CE0101960E94F2118C0112
:10336000892B51F48A85882339F0AD968FADAD97BE
:1033700083FF02C003E010E08B819C81009731F055
:10338000E981FA81608171810E948909012BF9F03C
:10339000F12CE12CCE01825B9F4F0E94FB09E114CE
:1033A000F10491F0D701ED91FC910480F581E02DBD
:1033B0006AEE73E0C7010995D701ED91FC91028097
:1033C000F381E02DC701099510923D0346CFEEE44D
:1033D000F0E0EC0FFD1FFA83E98380E992E09C8323
:1033E0008B8383E08D838E81807880688E83CE018D
:1033F00001960E943C11009721F1DC0114968C91FA
:103400009CEF980F923010F08230D9F4CE010196E3
:103410000E943C1110E000E0009719F00E94AC10EF
:103420008B0163E172E0C8010E94C11F892B61F426
:1034300082E090E00E94D61D7C01FC019182808296
:10344000A9CF09E012E0EDCF67ED71E0C8010E945D
:10345000C11F892B49F482E090E00E94D61D7C01B7
:10346000DC01AD92BC9296CF6AE072E0C8010E9486
:10347000C11F8C01892B09F08BCFEEE4F0E0EC0F3B
:10348000FD1FFA83E98384E992E09C838B8382E0C9
:103490008D838E81807880688E83CE0101960E9414
:1034A0003C11FC01892B29F084818A3029F08C3071
:1034B00059F100ED17E037C080819181A281B3817D
:1034C00081159048A105B105A0F7CE0101960E9493
:1034D0003C11DC01009739F11496EC911497E250FD
:1034E000ED3008F5F0E0E958F54E0C94E51BC41AF0
:1034F000931AC21AE31A911A931A931A931AA51AD5
:10350000931AB21A931AE71A80819181A281B3812A
:103510009058AF4FBF4F0097A140B10508F0C9CFF9
:10352000D4CF0C9110E086E090E00E94D61D7C0183
:10353000DC012D923C92012E000C220B330BFC017E
:10354000028313832483358325CF8D919D910D9024
:10355000BC91A02D811520E89207A105B10518F7AF
:103560008C01E1CF8D919D910D90BC91A02DAC016E
:10357000BD0150586F4F7F4F411551056140710596
:1035800090F6EECF8D919C910E944D06AF962FAF95
:10359000AF97E0963FAFE097E1964FAFE197E296A5
:1035A0005FAFE297E3966FAFE397E3964CAC5DAC09
:1035B0006EAC7FACE397223049F1233099F1213092
:1035C00009F0B1CF08C08D919C910496DDCF4D904C
:1035D0005D906D907C9020E030E040E057ECC301BE
:1035E000B2010E945F1D87FD9ECF20E03EEF4FEFAE
:1035F00056E4C301B2010E94721C18160CF493CF5A
:10360000C301B2010E94771C8B018DCFD301C2018F
:103610009058AF4FBF4F0097A140B10508F083CF3E
:10362000820181CF411420E8520661047104C0F385
:103630007ACF63E172E08DEB92E00E94C11F892B8B
:1036400049F482E090E00E94D61D7C01DC018D925D
:103650009C92A5CE67ED71E08DEB92E00E94C11FB8
:10366000892B49F482E090E00E94D61D7C01FC0188
:10367000B182A08294CE49E050E067E972E08DEB20
:1036800092E00E94CA1F892B09F09ECE86EC92E040
:103690000E94731B2B013C0186E090E00E94D61D26
:1036A0007C01DC012D923C92FC01428253826482B7
:1036B000758275CEEF3708F0D0CD91E09E0F9093D4
:1036C0003D03F0E0E354FD4F8083C7CD80E090E000
:1036D000892B09F4BACD0E949A01882309F4B1CD4F
:1036E0000E940000AECD1F93FC0199278827BC01E2
:1036F000E89411911032E9F3193010F01E30C8F33C
:103700001B3251F01D3249F4689406C00E949A1B86
:10371000610F711D811D911D119110531A30B0F36D
:103720003EF490958095709561957F4F8F4F9F4F98
:103730001F910895592F482F372F262F660F771F77
:10374000881F991F660F771F881F991F620F731FAD
:10375000841F951F660F771F881F991F0895AA1B46
:10376000BB1B51E107C0AA1FBB1FA617B70710F06C
:10377000A61BB70B881F991F5A95A9F7809590959E
:10378000BC01CD010895A1E21A2EAA1BBB1BFD01AD
:103790000DC0AA1FBB1FEE1FFF1FA217B307E40730
:1037A000F50720F0A21BB30BE40BF50B661F771F88
:1037B000881F991F1A9469F7609570958095909568
:1037C0009B01AC01BD01CF010895EE0FFF1F0590D5
:1037D000F491E02D09940E94F61BA59F900DB49FD3
:1037E000900DA49F800D911D11240895A29FB001FA
:1037F000B39FC001A39F700D811D1124911DB29F25
:10380000700D811D1124911D08955058BB27AA27C2
:103810000E941D1C0C94251D0E94171D38F00E944B
:103820001E1D20F039F49F3F19F426F40C94141D4A
:103830000EF4E095E7FB0C940E1DE92F0E94361D57
:1038400058F3BA17620773078407950720F079F4D5
:10385000A6F50C94581D0EF4E0950B2EBA2FA02D52
:103860000B01B90190010C01CA01A0011124FF272D
:10387000591B99F0593F50F4503E68F11A16F04028
:10388000A22F232F342F4427585FF3CF4695379527
:103890002795A795F0405395C9F77EF41F16BA0BEC
:1038A000620B730B840BBAF09150A1F0FF0FBB1F9A
:1038B000661F771F881FC2F70EC0BA0F621F731FE3
:1038C000841F48F4879577956795B795F7959E3F40
:1038D00008F0B0CF9395880F08F09927EE0F9795D1
:1038E000879508950E94EA1C08F481E008950E94DB
:1038F0007E1C6894B1110C94591D08950E943E1DC0
:1039000088F09F5798F0B92F9927B751B0F0E1F0A0
:10391000660F771F881F991F1AF0BA95C9F714C050
:10392000B13091F00E94581DB1E008950C94581DDB
:10393000672F782F8827B85F39F0B93FCCF3869589
:1039400077956795B395D9F73EF4909580957095E6
:1039500061957F4F8F4F9F4F0895E89409C097FB63
:103960003EF490958095709561957F4F8F4F9F4F56
:103970009923A9F0F92F96E9BB279395F69587959A
:1039800077956795B795F111F8CFFAF4BB0F11F45D
:1039900060FF1BC06F5F7F4F8F4F9F4F16C0882304
:1039A00011F096E911C0772321F09EE8872F762F3A
:1039B00005C0662371F096E8862F70E060E02AF07B
:1039C0009A95660F771F881FDAF7880F9695879567
:1039D00097F90895990F0008550FAA0BE0E8FEEF3C
:1039E00016161706E807F907C0F012161306E407C3
:1039F000F50798F0621B730B840B950B39F40A26BC
:103A000061F0232B242B252B21F408950A2609F499
:103A1000A140A6958FEF811D811D089597F99F679D
:103A200080E870E060E008959FEF80EC0895002446
:103A30000A941616170618060906089500240A9413
:103A400012161306140605060895092E0394000C99
:103A500011F4882352F0BB0F40F4BF2B11F460FF28
:103A600004C06F5F7F4F8F4F9F4F089557FD905851
:103A7000440F551F59F05F3F71F04795880F97FB32
:103A8000991F61F09F3F79F08795089512161306EC
:103A90001406551FF2CF4695F1DF08C0161617061B
:103AA0001806991FF1CF8695710561050894089550
:103AB000E894BB2766277727CB0197F908950E94E2
:103AC000EA1C08F48FEF08950E94771D0C94251DC1
:103AD0000E94171D38F00E941E1D20F0952311F042
:103AE0000C940E1D0C94141D11240C94591D0E944D
:103AF000361D70F3959FC1F3950F50E0551F629FDF
:103B0000F001729FBB27F00DB11D639FAA27F00D36
:103B1000B11DAA1F649F6627B00DA11D661F829F5D
:103B20002227B00DA11D621F739FB00DA11D621F42
:103B3000839FA00D611D221F749F3327A00D611D5F
:103B4000231F849F600D211D822F762F6A2F112441
:103B50009F5750409AF0F1F088234AF0EE0FFF1F74
:103B6000BB1F661F771F881F91505040A9F79E3FCB
:103B7000510580F00C940E1D0C94591D5F3FE4F329
:103B8000983ED4F3869577956795B795F795E79521
:103B90009F5FC1F7FE2B880F911D9695879597F92A
:103BA00008950E94EA1C880B990B08950F931F93A8
:103BB000CF93DF938230910510F482E090E0E091A2
:103BC0000104F091020430E020E0B0E0A0E0309782
:103BD00099F42115310509F44AC0281B390B24300A
:103BE0003105D8F58A819B816115710589F1FB0149
:103BF00093838283FE0111C0408151810281138130
:103C000048175907E0F04817590799F4109761F0E1
:103C100012960C93129713961C933296CF01DF9154
:103C2000CF911F910F910895009301041093020406
:103C3000F4CF2115310551F04217530738F0A9018F
:103C4000DB019A01BD01DF01F801C1CFEF01F9CF1E
:103C50009093020480930104CDCFFE01E20FF31F85
:103C6000819391932250310939832883D7CF2091B2
:103C7000FF0330910004232B41F420910401309183
:103C80000501309300042093FF032091020130913D
:103C900003012115310541F42DB73EB740910601CE
:103CA00050910701241B350BE091FF03F0910004B4
:103CB000E217F307A0F42E1B3F0B2817390778F003
:103CC000AC014E5F5F4F2417350748F04E0F5F1F62
:103CD000509300044093FF03819391939FCFF0E0B2
:103CE000E0E09CCFCF93DF930097E9F0FC0132979F
:103CF00013821282A0910104B0910204ED0130E020
:103D000020E01097A1F420813181820F931F209130
:103D1000FF03309100042817390709F061C0F093C0
:103D20000004E093FF03DF91CF910895EA01CE17DD
:103D3000DF07E8F54A815B819E0141155105B1F726
:103D4000E901FB83EA8349915991C40FD51FEC1710
:103D5000FD0761F4808191810296840F951FE9012E
:103D600099838883828193819B838A83F0E0E0E05A
:103D700012968D919C9113970097B9F52D913C91D6
:103D80001197CD010296820F931F2091FF0330916E
:103D900000042817390739F6309751F510920204BC
:103DA00010920104B0930004A093FF03BCCFD3830F
:103DB000C28340815181840F951FC817D90761F4D0
:103DC0004E5F5F4F88819981480F591F518340830F
:103DD0008A819B81938382832115310509F0B0CFBD
:103DE000F0930204E09301049ECFFD01DC01C0CFFB
:103DF00013821282D7CFB0E0A0E0E1E0FFE10C94A3
:103E0000DA1F8C01009751F4CB010E94D61D8C0162
:103E1000C801CDB7DEB7E0E10C94F61FFC01E60F58
:103E2000F71F9C0122503109E217F30708F49DC0E7
:103E3000D901CD91DC911197C617D70798F0C530FD
:103E4000D10530F3CE0104978617970708F3C61BF8
:103E5000D70B2297C193D1936D937C93CF010E948E
:103E6000721ED6CF5B01AC1ABD0A4C018C0E9D1E92
:103E7000A0910104B0910204512C412CF12CE12CB1
:103E8000109731F58091FF039091000488159905F2
:103E900009F05CC04616570608F058C08091020130
:103EA00090910301009741F48DB79EB740910601B0
:103EB00050910701841B950BE817F90708F055C0CE
:103EC000F0930004E093FF03F90171836083A0CFB6
:103ED0008D919C91119712966C90129713967C90ED
:103EE0001397A815B90559F56C0142E0C40ED11C11
:103EF000CA14DB0420F1AC014A195B09DA011296FD
:103F0000159780F06282738251834083D9016D934B
:103F10007C93E114F10471F0D7011396FC93EE93B6
:103F2000129776CF22968C0F9D1FF9019183808383
:103F3000F301EFCFF0930204E093010469CF481638
:103F4000590608F42C017D01D3019ACFCB010E94C0
:103F5000D61D7C01009749F0AE01B8010E94B81F40
:103F6000C8010E94721E870153CF10E000E050CFBD
:103F7000FB01DC0102C001900D9241505040D8F786
:103F80000895FB01DC018D91019080190110D9F396
:103F9000990B0895FB01DC014150504030F08D91A8
:103FA0000190801919F40020B9F7881B990B089526
:103FB0002F923F924F925F926F927F928F929F9239
:103FC000AF92BF92CF92DF92EF92FF920F931F9327
:103FD000CF93DF93CDB7DEB7CA1BDB0B0FB6F894D8
:103FE000DEBF0FBECDBF09942A88398848885F8418
:103FF0006E847D848C849B84AA84B984C884DF8089
:10400000EE80FD800C811B81AA81B981CE0FD11D6C
:104010000FB6F894DEBF0FBECDBFED010895F89442
:02402000FFCFD0
:104022000C0100000304800000000000D60CE70C25
:10403200B217000000003F0BF20AE80ADE0ADD0AAE
:10404200D90C000000007804E30C7904D70A0000C0
:1040520000007704E50CC816D40A000000007704BB
:10406200E10CC316DA0A00000000D0012C0159014C
:104072001D028E016801800100000000F303DF0CC5
:104082000104F6037C01EA0C7604F403750472045D
:1040920000000000D703DB0C140CC116DE03DB03A7
:1040A200D803312E3000554E4F205233202B20445E
:1040B2004854313100756E6F5F72335F64687431DA
:1040C200310053656E736F72536B657463683A3A6D
:1040D2007365747570282900436F6D616E646F7328
:1040E2003A20726561642C20696E74657276616C27
:1040F200203C6D733E2C206964656E74696679009C
:104102007573620053656E736F722042617365004E
:1041120073656E736F72002F2F272722225C5C62F9
:1041220008660C6E0A720D740900696E7465727607
:10413200616C0072656164004300250074656D70F6
:104142000068756D00554E4F52335F44485431310B
:104152005F536B657463683A3A73657475702829A6
:10416200000D0A005C7530303030006E756C6C00EA
:10417200747275650066616C7365007473006461C6
:1041820074610076616C756500756E6974007661A4
:104192006C696400736B65746368006E616D6500C1
:1041A20076657273696F6E0073656E736F727300FA
:1041B200636D64006D7300696E74657276616C2064
:0241C2000000FB
:00000001FF
